:020000040800F2
:10000000A058002065020008DD360008E914000849
:10001000D93600086F090008177F000800000000AB
:10002000000000000000000000000000E94000089F
:10003000B10E0008000000006D37000859420008AA
:100040007F0200087F0200087F0200087F0200088C
:100050007F0200087F0200087F0200087F0200087C
:100060007F0200087F0200087F0200087F0200086C
:100070007F0200087F0200087F0200087F0200085C
:100080007F0200087F0200087F0200087F0200084C
:100090007F0200087F0200087F020008B50E0008FA
:1000A0007F0200087F0200087F0200087F0200082C
:1000B0007F0200087F0200087F0200087F0200081C
:1000C0007F0200087F0200087F0200087F0200080C
:1000D0007F0200087F0200087F020008E57C00081C
:1000E0007F0200087F0200087F0200087F020008EC
:1000F0007F0200087F0200087F0200087F020008DC
:100100007F0200087F0200087F0200087F020008CB
:100110007F0200087F0200087F0200087F020008BB
:100120007F0200087F0200087F0200087F020008AB
:100130007F0200087F0200087F0200087F0200089B
:100140007F0200087F0200087F0200087F0200088B
:100150007F0200087F0200087F0200087F0200087B
:100160007F0200087F0200087F0200087F0200086B
:100170007F0200087F0200087F0200087F0200085B
:100180007F0200087F02000800F002F800F05AF831
:100190000AA090E8000C82448344AAF10107DA45E2
:1001A00001D100F04FF8AFF2090EBAE80F0013F0DA
:1001B000010F18BFFB1A43F001031847CCEB0000F6
:1001C000ECEB00000A444FF0000C10F8013B13F078
:1001D000070408BF10F8014B1D1108BF10F8015BA0
:1001E000641E05D010F8016B641E01F8016BF9D193
:1001F00013F0080F1EBF10F8014BAD1C0C1B09D1EA
:100200006D1E58BF01F801CBFAD505E014F8016B5B
:1002100001F8016B6D1EF9D59142D6D370470000ED
:100220000023002400250026103A28BF78C1FBD8FF
:10023000520728BF30C148BF0B6070471FB51FBDB4
:1002400010B510BD00F0BEF81146FFF7F7FF08F03B
:1002500037FC00F0DCF803B4FFF7F2FF03BC07F053
:10026000B9FF00000948804709480047FEE7FEE75C
:10027000FEE7FEE7FEE7FEE7FEE7FEE7FEE7FEE756
:1002800004480549054A064B704700005D420008D6
:1002900089010008A0520020A0580020A05400208E
:1002A000A0540020704753EA020C00F069802DE949
:1002B000F04B4FF00006002B1FBFB3FA83F503FA93
:1002C00005F424FA05F65E4012BF1643B2FA82F531
:1002D00002FA05F4C5F120051EBF22FA05FC44EA26
:1002E0000C04203556EA044C4FEA144418BF641C31
:1002F0004FF000084FF00009904271EB030C39D326
:10030000002919BFB1FA81F701FA07F6B0FA80F7B0
:1003100000FA07F6C7F120071EBF20FA07FC46EADD
:100320000C062037B6FBF4FCA7EB0507103F07F0DF
:100330001F0BCBF120060CFA0BFB2CFA06F644BF80
:10034000B3460026202FA4BF5E464FF0000B5BEAA9
:10035000060C08BF4FF0010B19EB0B09ABFB027C3D
:1003600048EB0608C01B06FB02CC0BFB03CC71EB71
:100370000C01C1E70B46024641464846BDE8F08BFA
:1003800013B54FF000004FF00001AFF30080BDE85F
:100390001C407047704770477047704710B500F0B9
:1003A00009F8006810BD10B5044600F003F80460B9
:1003B00010BD0000004870473C52002000487047C4
:1003C0003C5200207546FFF7F9FFAE46050069462E
:1003D000534620F00700854618B020B5FFF750FFC0
:1003E000BDE820404FF000064FF000074FF0000836
:1003F0004FF0000B21F00701AC46ACE8C009ACE8B7
:10040000C009ACE8C009ACE8C0098D467047044695
:10041000AFF300802046FFF71EFF000010B510214B
:10042000054800F0DEFE142008F020F810210248F4
:1004300000F0D5FE10BD00000010024010B500F025
:100440000BF800F079F8034800F0B8F8322007F014
:10045000F1FF10BD430B00201CB50121102003F05B
:100460004BFC0121102003F047FC0121102003F078
:1004700043FC0121102003F03FFC0121102003F078
:100480003BFC0121102003F037FC0121102003F078
:1004900033FC01208DF8040000208DF806000320B5
:1004A0008DF8050001208DF807000090694621486D
:1004B00000F021FE0220009069461E4800F01BFE5D
:1004C0000820009069461B4800F015FE04200090AB
:1004D0006946184800F00FFE102000906946154844
:1004E00000F009FE202000906946124800F003FE4B
:1004F0004020009000208DF8040069460D4800F06F
:10050000FAFD01210B4800F06AFE0821094800F0BD
:1005100066FE0221074800F062FE0421054800F053
:100520005EFE1021034800F05AFE2021014800F031
:1005300058FE1CBD0010024010B520210A4800F0F2
:100540004EFE022007F076FF2021074800F049FE0A
:100550000A2007F06FFF2021034800F040FE322000
:1005600007F068FF10BD00000010024070B505469E
:10057000002400BF1DE02878A04000F0800020B1DA
:1005800008210D4800F02DFE03E008210A4800F084
:1005900026FE012007F06AFF0221074800F021FE35
:1005A000012007F063FF0221034800F018FE601CE1
:1005B000C4B2082CDFDB70BD0010024010B5044649
:1005C00001210F4800F00BFE012007F04FFFFFF75D
:1005D00025FF0C48FFF7CAFF2046FFF7C7FF601C46
:1005E000FFF7C4FFA01CFFF7C1FFE01CFFF7BEFF31
:1005F000012007F03BFF0121014800F0F2FD10BD92
:1006000000100240190B00201CB50121042003F04A
:1006100073FB0121042003F06FFB0121042003F090
:100620006BFB0121042003F067FB01208DF804001F
:1006300000208DF8060002208DF8050001208DF8BD
:100640000700802000906946164800F054FD4020C5
:1006500000906946134800F04EFD4FF48070009002
:100660006946104800F047FD4FF4007000900020EC
:100670008DF8040069460B4800F03DFD80210948D3
:1006800000F0ADFD4FF48071064800F0A8FD402158
:10069000044800F0A6FD00F009F80349888800F03E
:1006A00015F81CBD00080240285100204CF2E33030
:1006B000054908804DF2E33048804EF2E3308880EF
:1006C0004FF2E330C8807047285100202DE9F041F7
:1006D000074600244FF40048002600204A490880BD
:1006E0003D464021494800F07AFD012007F0BEFE5A
:1006F00000BF35E08021454800F073FD012007F080
:10070000B5FE05EA080028B14FF480713F4800F0BB
:1007100068FD04E04FF480713C4800F060FD4FF646
:10072000FF7000EA4505012007F0A0FE8021374850
:1007300000F055FD012007F099FE4FF40071334899
:1007400000F044FD10B146F0010601E026F001067C
:100750004FF6FF7000EA4606012007F087FE641C92
:10076000102CC7DB3D46002441E08021274800F0E3
:1007700038FD012007F07AFE05EA080028B14FF4A1
:100780008071224800F02DFD04E04FF480711F4875
:1007900000F025FD4FF6FF7000EA4505012007F047
:1007A00065FE8021194800F01AFD012007F05EFE69
:1007B0004FF40071154800F009FD30B1124800886F
:1007C00040F001001049088005E00F48008820F043
:1007D00001000D4908800C4800884FF6FF7101EABE
:1007E000400009490880012007F040FE641C102CDD
:1007F000BBDB4021054800F0F4FC40F2DC5007F080
:1008000035FE3046BDE8F081100B002000080240A4
:100810002DE9F04F8BB082468B46904699460021D9
:100820004848CDE908100AF6A84000EBCB0003C801
:1008300042464B46CDE9020108F014FFCDE9040120
:100840000AEBCB0003C802460B46CDE90201DDE905
:10085000040108F015FB06460F4641F628105044E7
:1008600000EBCB0103C9CDE90201DDE9142308F057
:10087000F9FECDE904010AEBCB0003C802460B46A2
:10088000CDE90201DDE9040108F0FAFACDE906013B
:10089000DDE906231046194608F0B0FD32463B4616
:1008A000CDE902013046394608F0A8FDCDE9000146
:1008B000DDE9022308F028FACDE9040108F0A4F9E3
:1008C00004460D4622462B4600204FF0804108F09A
:1008D000BBFF02460B46CDE904012046294608F03D
:1008E000CFFA04460D462046294608F077F8002244
:1008F000154BCDE9040108F081FD42F2A8525244A3
:1009000002EBCB0203C242F2A850504400EBCB01F1
:1009100003C9CDE90001DDE9082308F06FFD0022DD
:100920000A4BCDE9020108F09DFECDE9040108F073
:100930003BFC43F6A861514421F81B000BB0BDE815
:10094000F08F000000001C40000034400080614037
:1009500070B5049C018442848384C484458C068CD5
:10096000AD1B8580C58C868CAD1BC58070BD00BF5E
:10097000FEE7000010B588B0002400BF0FE00020A3
:10098000694601EBC40108710320694601EBC4010B
:1009900048710120694601EBC401C871641C042C34
:1009A000EDDB0820009000030290401004904010FE
:1009B00006906946084800F09EFB02A9074800F02F
:1009C0009AFB04A9054800F096FB06A9034800F02D
:1009D00092FB08B010BD0000000402400018024065
:1009E00010B588B0002400BF14E00120694601EB77
:1009F000C40108710020694601EBC401887103201D
:100A0000694601EBC40148710220694601EBC4014B
:100A1000C871641C042CE8DB0820009000030290DD
:100A200040100490401006906946124800F063FBA5
:100A300002A9114800F05FFB04A90F4800F05BFB1E
:100A400006A90D4800F057FB08210A4800F0C7FB33
:100A50004FF40041084800F0C2FB4FF480410648C3
:100A600000F0BDFB4FF40051034800F0B8FB08B0A4
:100A700010BD000000040240001802402DE9FF4FA5
:100A80008BB004468B46B4F8580008F022FCCDE940
:100A90000601D4E90A01CDE90201D4E90C01CDE94E
:100AA0000001DDE9022308F0CFFECDE90401DDE914
:100AB000062308F0E5F905460E46B4F85A0008F09A
:100AC00008FCCDE90601D4E90E01CDE90201D4E923
:100AD0001001CDE90001DDE9022308F0B5FECDE902
:100AE0000401DDE9062308F0CBF907468846A08813
:100AF000B4F8581090FBF1F080B20990E088B4F897
:100B00005A1090FBF1F080B20890A4F800B00D9854
:100B100060800E98A0601898E0606388628C194627
:100B2000208C01F02FFDB4F802C0ACF10C0C1FFAC0
:100B30008CF3B4F822C0ACF1140C1FFA8CF261886B
:100B4000608C01F01FFDB4F802C00CF10C0C1FFA10
:100B50008CF3B4F822C0ACF1140C1FFA8CF261884B
:100B6000608C01F00FFDE38C2288A18C104601F00F
:100B700009FDB4F824C00CF1140C1FFA8CF3B4F87E
:100B800000C0ACF10C0C1FFA8CF2A18C208801F093
:100B9000F9FCB4F824C00CF1140C1FFA8CF3B4F86F
:100BA00000C00CF10C0C1FFA8CF2A18C208801F013
:100BB000E9FC002000906288921C91B222880E3AD3
:100BC00090B21823302202F0C9FA4FF0010A38E03F
:100BD000CAF1000008F015FB2A463346CDE90401AE
:100BE00008F00CFCCDE90601D4E90A0102460B46E7
:100BF000CDE90401DDE9060108F0FEFC1DD2CAF1D1
:100C0000000008F0FEFA2A463346CDE9040108F058
:100C1000F5FBCDE90601182005210122CDE90021CF
:100C200002902388099A0AFB123290B26288921CC1
:100C300091B2DDE9062302F031FB0AF101001FFA4F
:100C400080FAB4F858005045C2DA4FF0010A36E095
:100C5000504608F03EFB2A463346CDE9040108F031
:100C6000CDFBCDE90601D4E90C0102460B46CDE9E6
:100C70000401DDE9060108F085FB1CD2504608F0AE
:100C800028FB2A463346CDE9040108F0B7FBCDE93D
:100C90000601182005210122CDE9002102902388B8
:100CA000099A0AFB023290B26288921C91B2DDE985
:100CB000062302F0F3FA0AF101001FFA80FAB4F8F1
:100CC00058005045C4DA4FF0010938E0C9F100007E
:100CD00008F097FA3A464346CDE9040108F08EFB46
:100CE000CDE90601D4E90E0102460B46CDE9040127
:100CF000DDE9060108F080FC1DD2C9F1000008F012
:100D000080FA3A464346CDE9040108F077FBCDE985
:100D10000601182008210222CDE9002102906388F3
:100D2000089A09FB023291B22288483A90B2DDE972
:100D3000062302F0B3FA09F101001FFA80F9B4F8B2
:100D40005A004845C2DA4FF0010936E0484608F03B
:100D5000C0FA3A464346CDE9040108F04FFBCDE91D
:100D60000601D4E9100102460B46CDE90401DDE994
:100D7000060108F007FB1CD2484608F0AAFA3A46DA
:100D80004346CDE9040108F039FBCDE906011820FE
:100D900008210222CDE9002102906388089A09FB0C
:100DA000123291B22288483A90B2DDE9062302F06D
:100DB00075FA09F101001FFA80F9B4F85A004845A4
:100DC000C4DA00211822A068CDE9002002916288CF
:100DD0000C3291B2628C90B21823F02202F0E0FB48
:100DE00000211822E068CDE900200291A18C228820
:100DF0000C3290B21823F02202F0D2FB0FB0BDE803
:100E0000F08F00002DE9F05F044600BF00BF4FF0F7
:100E10000009CA4600BF00210F46884615E014F8B5
:100E20000A002E280FD00A2200213846A0FB023BE0
:100E300008FB02B207FB012C14F80A00A0F13001F4
:100E40005F184CEBE1780AF1010ABAF1110F03DAED
:100E500014F80A000028E2D13846414608F0E8F9C3
:100E600005460E464FF0000917E014F809002E2839
:100E700011D109F1010909E000220C4B2846314645
:100E800007F0FEFF05460E4609F1010914F80900B6
:100E90000028F1D105E009F1010914F80900002842
:100EA000E3D100BF28463146BDE8F09F0000244052
:100EB0007047000010B5C82007F0D8FA4FF48070D2
:100EC00000F014F848B103F043F80449087001F049
:100ED000AFF84FF4807000F003F810BDFC0A00205A
:100EE0000149086070470000143C014001460020A1
:100EF000034A12680A400AB1012000E0002070474E
:100F0000143C014000B589B00121022002F0F4FE3A
:100F10000121022002F0F0FE0121202002F0ECFE6F
:100F20000121402002F0E8FE4FF400500190012022
:100F30008DF8080000208DF80A0002208DF80900C5
:100F400001208DF80B000003039001218DF8101093
:100F500000218DF8121002218DF8111001218DF859
:100F60001310800005908DF8181000218DF81A10CC
:100F700002218DF8191001218DF81B100120079016
:100F8000002101A8017702214177C17701A910480A
:100F900000F0B1F803A90E4800F0ADF805A90D481E
:100FA00000F0A9F807A90C4800F0A5F84FF400518B
:100FB000074800F016F94FF48051054800F00FF98A
:100FC0004FF48041034800F00AF909B000BD000069
:100FD00000040240001402400018024051B1820097
:100FE000A2F1C042126842F001038200A2F1C042A5
:100FF000136009E08200A2F1C0421268034B1A405C
:101000008300A3F1C0431A6070470000FEFF0F0089
:10101000D0E901121143C2681143026911434269C8
:10102000114382691143C2691143026A1143426A42
:101030001143826A1143C26A1143026B1143026871
:101040009200A2F1C0421160816808290BD10168A9
:101050008900A1F1C041096841F04002016889009E
:10106000A1F1C0410A60416B0968426B526841EAD4
:101070000211426B926841EA0221426B928941EA75
:101080000241426B128A41EA0251426B127D41EAEF
:101090000261426B926911430268521C9200A2F1F4
:1010A000C0421160C16AB1F5804F1BD1816B0968E4
:1010B000826B526841EA0211826B926841EA022116
:1010C000826B128A41EA0251826B127D41EA02610F
:1010D000826B9269114302689200A2F1C042C2F889
:1010E000041107E06FF0704201688900A1F1C0416E
:1010F000C1F804217047F0B50A46002100230024FE
:1011000000BF3DE0012505FA01F3156805EA030477
:101110009C4234D105684F000326BE40B5430560AC
:1011200015794E00B5400668354305601579012DE7
:1011300002D01579022D16D185684F000326BE40D6
:10114000B543856055794E00B54086683543856066
:10115000456801268E40B5434560456896798E40C6
:10116000B6B235434560C5684F000326BE40B5435F
:10117000C560D5794E00B540C6683543C560491C89
:101180001029BFD3F0BDF0B5002300244D07ED0EAC
:1011900002FA05F3CE1000F1200555F826504E074F
:1011A000F70E0F26BE40B543CF1000F1200646F8DB
:1011B0002750CE1000F1200555F8265045EA0304CB
:1011C000CE1000F1200545F82640F0BD0246002073
:1011D00013690B400BB1012000E0002070474183F0
:1011E00070470183704700002DE9F04F8BB0044633
:1011F0008B46BA4800880A90A088B4F85810490075
:1012000090FBF1F01FFA80F8E088B4F85A1049001A
:1012100090FBF1F01FFA80F9A08808F05AF800223C
:10122000AF4BCDE9060107F02BFECDE9080107F031
:10123000BBFF1FFA80FAE0880A2190FBF1F087B229
:10124000A648A0F800B0012618E0002512E0B4F886
:101250005800B0420CD0E28C05EB8503A2EB4302B0
:1012600091B2228C06FB082290B25A4601F004FA91
:10127000681C85B2BD42EADB701C86B2B4F8580027
:101280004000B042E1DC01252DE0002627E0B4F863
:101290005A00A84221D0700007F0B3FF0022914B02
:1012A000CDE9000108F0AAF8CDE90401208C08F08E
:1012B00010F8CDE90201DDE9042307F025FDCDE9B1
:1012C000060107F071FF80B20990E08C05FB190060
:1012D00081B25A46099801F0CFF9701C86B2564582
:1012E000D5DB681C85B2B4F85A004000A842CCDCBB
:1012F00000264AE00AEBDA71B6EB610F43D07000CA
:1013000007F07FFF0022774BCDE9000108F076F867
:10131000CDE90401208C07F0DCFFCDE90201DDE915
:10132000042307F0F1FCCDE9060107F03DFF80B290
:101330000990700007F065FF00226A4BCDE90001BB
:1013400008F05CF8CDE90401208C07F0C2FFCDE97C
:101350000201DDE9042307F0D7FCCDE9060107F01F
:1013600023FF80B20890E08CB4F85A2002FB1900E9
:10137000801C83B2E08C02FB1900801E81B2DDE983
:10138000080201F0FFF8701C86B25645B2DB00255A
:1013900032E007EBD7725210521CAA422AD007EB58
:1013A000D7725210AA4225D0B4F826C005EB850E9C
:1013B000ACEB4E0C1FFA8CF3B4F820C0B4F858E034
:1013C0000EFB08CC0CF1020C1FFA8CF2B4F826C00C
:1013D00005EB850EACEB4E0C1FFA8CF1B4F820C077
:1013E000B4F858E00EFB08CCACF1020C1FFA8CF0FC
:1013F00001F0C8F8681C85B2BD42CADBB4F826C04B
:1014000007EB870EACEB0E0C1FFA8CF3B4F820C080
:10141000B4F858E00EFB08CC0CF1020C1FFA8CF269
:10142000B4F826C007EB870EACEB0E0C1FFA8CF15C
:10143000B4F820C0B4F858E00EFB08CCACF1020CB4
:101440001FFA8CF001F09EF8504607F042FF002290
:10145000244BCDE9000107F0D1FFCDE90401208C38
:1014600007F037FFCDE90201DDE9042307F04CFC6A
:10147000CDE9060107F098FE80B20990504607F0CA
:1014800028FF0022174BCDE9000107F0B7FFCDE997
:101490000401208C07F01DFFCDE90201DDE90423E2
:1014A00007F032FCCDE9060107F07EFE80B208901D
:1014B000E08CB4F85A2002FB1900801C83B2E08C47
:1014C00002FB1900801E81B2DDE9080201F05AF822
:1014D00002490A9808800BB0BDE8F08F520B00203B
:1014E00000002E4000001E4000BFFEE710B500F6D1
:1014F000A84404EBC1040CC410BD704710B51248D9
:1015000000681149C98810F811000B2818D2DFE8CB
:1015100000F0060708090A0E12131415160010E051
:101520000FE00EE00DE008488168884709E00648B2
:101530008168884705E004E003E002E001E000E0A4
:1015400000BF00BF10BD0000B40B002010B53B4829
:1015500000683A49C98810F811000B286BD2DFE8FF
:1015600000F00607131F2B343D49515D690063E00D
:1015700032488088012806D13048816888472F4842
:101580000221C268904757E02C488088012806D184
:101590002A488168884729480321C26890474BE060
:1015A00026488088012806D1244881688847234836
:1015B0000121C26890473FE020488088022803D17B
:1015C0001E480621C268904736E01C4880880228E1
:1015D00003D11A480821C26890472DE01748808837
:1015E000032806D115488168884714480721C26836
:1015F000904721E011488088032802D10F48816874
:10160000884719E00D488088032806D10B48816877
:1016100088470A480921C26890470DE0074880883A
:10162000032806D105488168884704480721C26815
:10163000904701E000E000BF00BF10BDB40B0020E8
:1016400000B589B000BFFE480068FD49C98810F8A0
:1016500011000A2870D2DFE800F06F0570AEF2F0DA
:10166000EFEEEDEC002000F0AFFD0020F5A1302200
:101670001023CDE9002102904FF461720A211E204F
:1016800001F08EFF0020F5A130221023CDE90021CA
:1016900002904FF496726E211E2001F081FF00200F
:1016A000F1A130221023CDE9002102904FF496726F
:1016B000D2211E2001F074FF0020EDA13022102362
:1016C000CDE9002102904FF496726E2140F28A20FB
:1016D00001F066FF0020E7A130221023CDE90021B0
:1016E00002904FF49672D22140F28A2001F058FF06
:1016F00030200C210422CDE900210290DE4903C9EB
:1017000002460B46CDE904016E214FF4967001F0BC
:10171000C5FD30200C210422CDE900210290D649DC
:10172000D1E9020102460B46CDE90401D2214FF472
:10173000967001F0B3FD45E290E3002000F044FD17
:10174000CEA3D1A28C21322000F0BEFED148007879
:1017500001280DD10020D0A118221346CDE9002187
:1017600002907822014640F28A2001F019FF21E020
:10177000C848007868B90020CAA118221346CDE9EC
:1017800000210290A022014640F28A2001F008FFC9
:1017900010E0C048007802280CD10020C5A1182212
:1017A0001346CDE9002102907822014640F28A20BA
:1017B00001F0F6FEE0E3002000F006FDBFA3B2A2B8
:1017C000F021322000F080FEB248007801280DD1CF
:1017D0000020B1A118221346CDE900210290782201
:1017E000014640F28A2001F0DBFE21E0A9480078A2
:1017F00068B90020ABA118221346CDE90021029060
:10180000A022014640F28A2001F0CAFE10E0A14861
:10181000007802280CD10020A6A118221346CDE999
:10182000002102907822014640F28A2001F0B8FEA1
:10183000A2E3C0E277E2C6E179E174E0FFE70020CD
:1018400000F0C2FCA148008830231A460A2100900B
:1018500040F2ED2000F0D2FD00207AA130221023CA
:10186000CDE9002102904FF461720A211E2001F09F
:1018700097FE002079A130221023CDE900210290AB
:101880004FF496726E211E2001F08AFE002076A190
:1018900030221023CDE9002102904FF49672D2211C
:1018A0001E2001F07DFE002071A130221023CDE921
:1018B000002102904FF496726E2140F28A2001F0CE
:1018C0006FFE00206BA130221023CDE90021029091
:1018D0004FF49672D22140F28A2001F061FE30204E
:1018E0000C210422CDE900210290634903C902467C
:1018F0000B46CDE904016E214FF4967001F0CEFC49
:1019000030200C210422CDE9002102905A49D1E96E
:10191000020102460B46CDE90401D2214FF4967034
:1019200001F0BCFC28E3002000F04EFC6748008872
:1019300030231A460A21009040F2ED2000F05EFDAF
:10194000002063A130221023CDE9002102904FF442
:1019500061720A211E2001F023FE002063A13022C3
:101960001023CDE9002102904FF496726E211E20C3
:1019700001F016FE00205FA130221023CDE90021E6
:1019800002904FF49672D2211E2001F009FE002031
:1019900035A130221023CDE9002102904FF4967238
:1019A0004FF49B711E2001F0FBFD002030A130227E
:1019B0001023CDE9002102904FF496726E2140F27F
:1019C0008A2001F0EDFD002029A130221023CDE96D
:1019D000002102904FF49672D22140F28A2001F049
:1019E000DFFD002023A130221023CDE90021029049
:1019F0004FF496724FF49B7140F28A2001F0D0FDB3
:101A000030200C210422CDE9002102901A49D1E9AD
:101A1000040102460B46CDE904016E214FF4967095
:101A200001F03CFC30200C210422CDE90021029081
:101A30001149D1E9060102460B46CDE904015DE0FA
:101A4000B40B00204D6F64653A20202020202053E5
:101A5000696E676C652D546F6E6500004672657126
:101A600075656E63793A0000537465703A00000042
:101A70004D487A006B487A00C80B002032306C6702
:101A80007C417C2F64420000662F3130306B487AF5
:101A900000000000C40B002043757474696E674F2A
:101AA00075740000436F73436F7272656374696F7E
:101AB0006E0000004E6F726D616C000050686173C3
:101AC000652F64656772656500000000520B002099
:101AD0004D6F64653A202020202020537765657083
:101AE0002D4672657175656E637900004D696E3AB9
:101AF000000000004D61783A00000000D2214FF450
:101B0000967001F0CBFB30200C210422CDE900219E
:101B10000290FE49D1E9080102460B46CDE90401D5
:101B20004FF49B714FF4967001F0B8FB24E26E21E4
:101B30004FF4967006F0E6FCCDE90601F448006823
:101B4000012829D10022F34BDDE9060107F054FDFD
:101B500003D20020EF49CDE906010022EE4BDDE97A
:101B6000060107F00FFC03D20021EB48CDE9061077
:101B700030210A220420CDE9012100906E214FF48A
:101B80009670DDE9062301F089FBE04ADDE90601F4
:101B900003C20020DE490860E04800884FF4E57386
:101BA00040F21F320A21009040F2ED2000F024FEA6
:101BB000DB48008830231A466E21009040F2EF2067
:101BC00000F01CFCD8E1D54800884FF4E57340F2E2
:101BD0001F320A21009040F2ED2000F00DFED148A6
:101BE0000168C088401E11F8100004284FD1CC486D
:101BF000008830231A46D221009040F2EF2000F0F6
:101C0000FDFBD2214FF4967006F07CFCCDE9060175
:101C1000BF480068012839D1BC4903C90022C24B22
:101C2000CDE9020107F0EAFBCDE90401DDE9062375
:101C300007F0A8FB0AD2B54903C90022BA4BCDE987
:101C4000040107F0DBFBCDE906010AE00022B74BF7
:101C5000DDE9060107F0D0FC03D20020B349CDE94D
:101C6000060130220A200421CDE901020091D2218F
:101C70004FF49670DDE9062301F010FBA34ADDE97D
:101C80000610C2E902100020A14908604AE0A548F8
:101C90000168C088401E11F81000052842D1A048F4
:101CA000008830231A464FF49B71009040F2EF20D9
:101CB00000F0A4FB4FF49B714FF4967006F022FCE9
:101CC000CDE906019248006801282BD10022974BEC
:101CD000DDE9060107F090FC03D200209349CDE92D
:101CE000060100228C4BDDE9060107F04BFB03D215
:101CF00000218948CDE9061030220A200421CDE9CF
:101D0000010200914FF49B714FF49670DDE90623B8
:101D100001F0C4FA7D4ADDE90610C2E9081000208E
:101D20007B49086028E16E214FF4967006F0EAFBCB
:101D3000CDE9060176480068012825D17349D1E92B
:101D4000060102460B46CDE90401DDE9060107F074
:101D500053FC04D26D48C1698069CDE90601302188
:101D60000A220420CDE9012100906E214FF49670E3
:101D7000DDE9062301F092FA644ADDE90610C2E9C2
:101D80000410002062490860644800884FF4E5733D
:101D900040F21F320A21009040F2ED2000F02CFDAD
:101DA0005F48008830231A466E21009040F2EF20F1
:101DB00000F024FBE0E0D2214FF4967006F0A2FB85
:101DC000CDE9060152480068012830D10022584B65
:101DD000DDE9060107F010FC03D200205449CDE9EB
:101DE00006014A49D1E9040102460B46CDE9040146
:101DF000DDE9060107F0C6FA04D24449D1E904013D
:101E0000CDE9060130220A200421CDE9010200912A
:101E1000D2214FF49670DDE9062301F03FFA3B4AE8
:101E2000DDE90610C2E906100020394908603B4888
:101E300000884FF4E57340F21F320A21009040F20F
:101E4000ED2000F0D9FC3648008830231A46D22114
:101E5000009040F2EF2000F0D1FA8DE00020AFF2C8
:101E6000044130221023CDE9002102904FF49672F4
:101E70000A211E2001F094FB00202EA13022102305
:101E8000CDE9002102904FF496726E211E2001F0E0
:101E900087FB002029A130221023CDE900210290E8
:101EA0004FF49672D2211E2001F07AFB002026A169
:101EB00030221023CDE9002102904FF496724FF4A6
:101EC0009B711E2001F06CFB002022A13022102308
:101ED000CDE9002102904FF496726E2140F28A20E3
:101EE00001F05EFB00201CA130221023CDE900216F
:101EF00002904FF49672D22140F28A2001F050FBFA
:101F0000002016A1302210232AE00000C80B002078
:101F1000F00A0020000044400000F03F540B002075
:101F2000520B0020B40B002000408F400088D340AB
:101F300000004940447574793A000000496E7465A8
:101F40007276616C3A000000416D706C6974756462
:101F5000653A000025000000755300006D56000032
:101F6000CDE9002102904FF496724FF49B7140F23C
:101F70008A2001F015FB00BF00BF09B000BD0000C2
:101F800010B5294800682849C98810F811000B28A5
:101F900046D2DFE800F006071011283440414243E2
:101FA00044003EE020488088012803D11E480421D7
:101FB000C268904735E000BF1C48007818B901207E
:101FC0001A4908700EE019480078012803D1022050
:101FD0001649087006E015480078022802D1002052
:101FE000124908701DE010488088022806D10E486A
:101FF000816888470C480521C268904711E00A486B
:102000008088022806D1084881688847064804214C
:10201000C268904705E004E003E002E001E000E070
:1020200000BF00BF10BD0000B40B0020C40B002097
:1020300010B519480078102828D2DFE800F0080908
:102040000A0B0C0D0E0F101114171A20261D00BFBD
:1020500000BF00BF00BF00BF00BF00BF00BF00BF88
:10206000FFF74BFA13E0FFF749FA10E000F01AF817
:102070000DE0FFF76BFA0AE0FFF782FF07E00020B0
:10208000064908700649087001E000E000BF00BF83
:10209000FFF7D6FA10BD0000FC0A0020C50B002097
:1020A000C60B002010B5404800683F49C98810F8A9
:1020B00011000B2875D2DFE800F00607131F2B3440
:1020C0003D455E6673006DE037488088012806D183
:1020D00035488168884734480321C268904761E0E9
:1020E00031488088012806D12F48816888472E48CA
:1020F0000121C268904755E02B488088012806D10D
:1021000029488168884728480221C268904749E0E9
:1021100025488088022803D123480721C2689047B8
:1021200040E021488088022803D11F480721C26867
:10213000904737E01C488088032802D11A488168FC
:1021400088472FE018488088032813D116488168F3
:102150008847154800681449C98810F811000428F8
:1021600004D111480621C268904703E00E480921B6
:10217000C268904716E00C488088032802D10A48BC
:10218000816888470EE008488088032806D1064801
:102190008168884704480821C268904702E000E04F
:1021A00000E000BF00BF10BDB40B002030B50146F9
:1021B00001F01F04C1F34513CA0AE50205EB4315FC
:1021C0001544A8B230BD000070B50446002618487A
:1021D0000588408845431648808846F604018842B1
:1021E00016D113488079012812D100201049887136
:1021F0002A2048812B2088810021084600F0D0FD4C
:1022000001200B4988712B2048812A20888103E016
:102210000021084600F0C4FD01F00EFA002602E09D
:1022200004480480761CAE42FAD30348048070BD93
:10223000505100208000006C540B002010B5044663
:10224000002C66D16C498871F02008804FF4A07092
:1022500048800846808849F2413188420BD0664860
:10226000808846F60401884205D06348808845F29C
:10227000103188421AD12C205F4908812A204881D8
:102280002B2088810846808846F60401884205D0C4
:102290005948808845F21031884206D14FF4A07029
:1022A000554908804FF4F0704880A1E0524880887A
:1022B00045F21051884210D14FF430504E490881F8
:1022C0004FF4285048814FF42C5088814FF4F0701F
:1022D00008804FF4487048808AE04748808841F67B
:1022E000631188420DD12C20434908812B2048815D
:1022F0002A2088814FF4F07008804FF4487048809D
:1023000076E022203C4908812020488121208881D4
:102310006EE00120384988714FF4A0700880F020E9
:1023200048800846808849F24131884205D03248C9
:10233000808845F21031884207D12C202E4908812F
:102340002A2048812B2088813FE02B48808846F650
:102350000401884207D12C20274908812B2048817D
:102360002A20888131E02448808845F21051884233
:1023700010D14FF43050204908814FF42850488143
:102380004FF42C5088814FF4487008804FF4F0705F
:1023900048801AE01848808841F6631188420DD1C0
:1023A0002C20154908812A2048812B2088814FF450
:1023B000487008804FF4F070488006E022200E49F3
:1023C000088121204881202088810B48808846F69A
:1023D0000401884205D00848808845F210318842BF
:1023E00006D14FF4F070044908804FF4A070488083
:1023F000002000F05FFB10BD505100202DE9F04F90
:1024000087B00446894616469A460025AB4600200A
:1024100005900490504607F007FC0290701007F0FA
:10242000EBFB4FF07E51009007F012FC01900299F7
:1024300007F020FB039007F0F1FA0746884625468F
:1024400038E0281B06F0DDFE3A464346CDE90001A0
:1024500006F0D4FFCDE9020106F0A6FE09EB660105
:10246000081A80B20590281B06F0CBFE3A46434678
:10247000CDE9000106F0C2FFCDE9020106F094FEAD
:1024800009EB6601084480B20490DDF814B00CE05A
:102490005946284600F084FC01F0CEF8094910980E
:1024A00008800BF101001FFA80FB04988345EFDBE5
:1024B000681C85B204EB0A00A842C2DC07B0BDE884
:1024C000F08F00008000006CFEB504460D461646F5
:1024D0001F462B4640F21F322946002000F052F8DA
:1024E000A5F10C0083B240F20B32294640F21F30B6
:1024F00000F048F805F10C0083B240F20B32294697
:1025000040F21F3000F03EF840F2DF132246002177
:10251000204600F037F8A4F10C0082B21423002109
:10252000204600F02FF804F10C0082B214230021A1
:10253000204600F027F80020AA1C91B2A4F10E0258
:10254000009090B21823302200F008FE00201821DD
:10255000CDE90016029005F10C0081B21823F0229B
:1025600040F2A72001F01CF800201821CDE9001747
:10257000029004F10C0188B21823F022002101F02E
:102580000FF8FEBD2DE9FF4F84B081468A4600203A
:10259000039002900698A0EB09050798A0EB0A06A5
:1025A000CDF80490CDF800A0002D01DD012705E055
:1025B0000DB9002702E04FF0FF376D42002E02DD1B
:1025C0004FF0010806E016B94FF0000802E04FF0A6
:1025D000FF387642B54201DD2C4600E034464FF02C
:1025E000000B23E0009A91B2019A90B2124A12882D
:1025F00000F042F803982844039002983044029077
:102600000398A04205DD0398001B0390019838440D
:1026100001900298A04205DD0298001B02900098EC
:10262000404400900BF101001FFA80FB601C8345C1
:10263000D8DD08B0BDE8F08F520B0020F0B504469D
:102640000D4616461F462B46324629462046FFF7C2
:1026500099FF3B46224629462046FFF793FF3B461B
:10266000324639462046FFF78DFF3B463246294623
:102670003046FFF787FFF0BD70B504460D4616469D
:102680005B48808849F24131884205D058488088AB
:1026900045F21031884214D15549488900F0C0FFF5
:1026A000201200F0B1FFE0B200F0AEFF504988897F
:1026B00000F0B6FF281200F0A7FFE8B200F0A4FF78
:1026C0008CE04B48808845F21051884220D148491F
:1026D000488900F0A5FF201200F096FF444949897F
:1026E000491C88B200F09CFFE0B200F08DFF404929
:1026F000888900F095FF281200F086FF3C498989FF
:10270000491C88B200F08CFFE8B200F07DFF65E064
:102710003748808841F66311884228D1344880794F
:1027200020B933480088401E001B84B230494889D4
:1027300000F076FF201200F067FFE0B200F064FFC7
:10274000201200F061FFE0B200F05EFF28498889A6
:1027500000F066FF281200F057FFE8B200F054FFC7
:10276000281200F051FFE8B200F04EFF36E020489A
:10277000808846F6040188421DD11D4880790128D1
:1027800004D11B480088401E001B84B218494889A8
:1027900000F046FF201200F037FFE0B200F034FFF7
:1027A0001349888900F03CFF281200F02DFFE8B2A1
:1027B00000F02AFF12E00E488079012804D10C486D
:1027C0000088401E001B84B209494889214600F058
:1027D0003DFF07498889294600F038FF04480089F1
:1027E000044908804FF0D840A0F8806070BD000018
:1027F000505100207E00006C2DE9FC4F05460E462E
:1028000017469846DDF82C900020019027488088D4
:1028100046F60401884229D124488079012825D12F
:10282000AB46354621480088C01B401E86B247464D
:102830001E480088A0EB0B00401E1FFA80F8002005
:102840001A4988712A2048812B20888143463A46BC
:1028500031462846CDF80090FFF7CEFF01201349FE
:1028600088712B2048812A2088811DE0781B401C1C
:1028700080B20190344615E02146284600F090FAD7
:1028800000F0DAFE4FF0000A07E04FF0D840A0F861
:1028900080900AF101001FFA80FA01988245F4DB6A
:1028A000601C84B24445E7DDBDE8FC8F5051002038
:1028B00010B50246012000E050430B00A1F10104D5
:1028C000E1B2F9D110BD000008B5034800880090BE
:1028D000BDF8000008BD00008000006C2DE9F0414B
:1028E00005460E4600240027A04656480088A84208
:1028F00003DD54484088B04202DC0020BDE8F0818E
:102900003146284600F04CFA4E48808849F2413161
:10291000884211D04B48808846F6040188420BD08B
:102920004848808845F21031884205D04548808863
:1029300041F66311884203D12E2000F071FE0DE0B4
:102940004048808845F21051884204D14FF43850F5
:1029500000F066FE02E0222000F062FE3948808826
:1029600049F22031884202D1022006F00DF9FFF72A
:10297000ABFF04463348808841F66311884201D199
:102980002046BBE7022006F0FFF8FFF79DFF044654
:102990002C48808849F2413188420BD029488088F0
:1029A00045F21031884205D02648808845F2105102
:1029B00088420AD1022006F0E7F8FFF785FF80463B
:1029C000E7B24FF6FF7000EA07271E48808849F2F9
:1029D0002531884216D01B48808844F23551884200
:1029E00010D018488088091F88420BD0154880886D
:1029F0004BF20551884205D0124880884CF20551AF
:102A0000884201D1204679E70E48808849F2413159
:102A100088420BD00B48808845F21031884205D09F
:102A20000848808845F21051884207D1E012C00260
:102A3000B91240EA411040EAE8205FE72046FFF77C
:102A4000B5FB5BE75051002010B50446204600F06E
:102A5000E7FD052005F00AFDFFF736FF10BD000079
:102A60002DE9F0470446BE2000F0DAFD052000F015
:102A7000CBFD204606F02DFC07464FF066320C4B8E
:102A800006F0BCFC054606F08FFB1FFA80F94846AD
:102A900000F0BAFD012000F0B7FDFF2000F0B4FD0A
:102AA000002000F0B1FD002000F0AEFDBDE8F08791
:102AB00066660440F0B5054600240027B7488079D3
:102AC00001280BD1B548808846F60401884205D01C
:102AD000B248808841F66311884208D1AF488079B6
:102AE000F0B9AE48808841F66311884218D1082DAC
:102AF00015D2DFE805F00406080A0C0E10120625B0
:102B00000DE007250BE0042509E0052507E0012578
:102B100005E0002503E0032501E0022500BF00BF1A
:102B20009E48808849F24131884217D09B4880886E
:102B300046F60401884211D09848808845F2103149
:102B400088420BD09548808845F21051884205D0C4
:102B50009248808841F6631188427DD1082D1CD2AD
:102B6000DFE805F00406090C0F12151800BF14E089
:102B700044F0800411E044F040040EE044F0C0044E
:102B80000BE044F0200408E044F0600405E044F069
:102B9000A00402E044F0E00400BF00BF7F4880884A
:102BA00045F21051884202D14FF4585700E03627C1
:102BB0007A48808845F2103188420DD07748808865
:102BC00045F21051884207D07448808841F663115D
:102BD000884201D044F008047048808846F6040119
:102BE000884201D144F002042146384600F02EFD0F
:102BF0006A48808841F6631188421DD004F02000A5
:102C000068B16648008865494988884214DA634893
:102C10000688408861490880084646800CE05F4885
:102C200000885E494988884206DD5C4806884088FD
:102C30005A490880084646805848808845F2105115
:102C4000884254D15549488900F0EAFC002000F040
:102C5000DBFC5249498900E078E0491C88B200F069
:102C6000DFFC002000F0D0FC4C494989891C88B267
:102C700000F0D6FC49490988491EC1F30F2000F035
:102C8000C3FC46494989C91C88B200F0C9FC4349C4
:102C90000978491EC8B200F0B7FC4049888900F0A5
:102CA000BFFC002000F0B0FC3C498989491C88B277
:102CB00000F0B6FC002000F0A7FC38498989891C87
:102CC00088B200F0ADFC35494988491EC1F30F2098
:102CD00000F09AFC31498989C91C88B200F0A0FC37
:102CE0002E498978491EC8B200F08EFC55E02B4968
:102CF000488900F095FC002000F086FC002000F0E0
:102D000083FC26490988491EC1F30F2000F07CFC92
:102D100022490978491EC8B200F076FC1F4988890B
:102D200000F07EFC002000F06FFC002000F06CFC46
:102D30001A494988491EC1F30F2000F065FC174964
:102D40008978491EC8B200F05FFC26E0082D1CD22D
:102D5000DFE805F004070A0D0F12151844F03004DF
:102D600013E044F0100410E044F020040DE000BF34
:102D70000BE044F0380408E044F0280405E044F097
:102D8000180402E044F0080400BF00BF032744F425
:102D900080542146384600F059FCF0BD50510020C7
:102DA00030B504460D466748808849F24131884273
:102DB00005D06448808845F21031884214D16149B9
:102DC000488900F02DFC201200F01EFCE0B200F05B
:102DD0001BFC5C49888900F023FC281200F014FCDD
:102DE000E8B200F011FCABE05648808846F60401DA
:102DF00088421DD153488079012804D15148008868
:102E0000401E001B84B24F49488900F009FC201283
:102E100000F0FAFBE0B200F0F7FB4A49888900F0C5
:102E2000FFFB281200F0F0FBE8B200F0EDFB87E0BA
:102E30004448808841F66311884247D141488079EF
:102E4000A8B940480088401E001B84B23D4948890B
:102E500000F0E6FB002000F0D7FB002000F0D4FBE0
:102E6000201200F0D1FBE0B200F0CEFB16E03549B5
:102E7000488900F0D5FB201200F0C6FBE0B200F05C
:102E8000C3FB30490988491EC1F30F2000F0BCFB89
:102E90002C490978491EC8B200F0B6FB2949888937
:102EA00000F0BEFB281200F0AFFBE8B200F0ACFB74
:102EB00024494988491EC1F30F2000F0A5FB214990
:102EC0008978491EC8B200F09FFB39E01D48808810
:102ED00045F21051884220D11A49488900F0A0FBE0
:102EE000201200F091FB17494989491C88B200F073
:102EF00097FBE0B200F088FB1249888900F090FB54
:102F0000281200F081FB0F498989491C88B200F022
:102F100087FBE8B200F078FB12E00A4880790128CC
:102F200004D108480088401E001B84B20549488926
:102F3000214600F08BFB03498889294600F086FB77
:102F400030BD0000505100202DE9F04F86B00446FE
:102F50000D469046994604EB0800401E86B205EBEC
:102F60000900401E87B27C48808849F2413188427E
:102F700015D07948808845F2103188420FD07648C4
:102F8000808846F60401884209D073488079012878
:102F900026D17148808841F66311884220D16E495C
:102FA000488900F03DFB201200F02EFBE0B200F05B
:102FB0002BFB301200F028FBF0B200F025FB664935
:102FC000888900F02DFB281200F01EFBE8B200F00B
:102FD0001BFB381200F018FBF8B200F015FBB8E04C
:102FE0005D48808841F66311884234D15A48008890
:102FF000A0EB0800001B84B205EB0900401E1FFA7D
:1030000080F95549488900F00BFB201200F0FCFACA
:10301000E0B200F0F9FA04EB0801491EC1F30F20F9
:1030200000F0F2FA04EB0801491EC8B200F0ECFA15
:103030004949888900F0F4FA281200F0E5FAE8B26C
:1030400000F0E2FA4FEA292000F0DEFA09F0FF0072
:1030500000F0DAFA7DE04048808845F2105188425D
:1030600044D13D49488900F0DBFA201200F0CCFA47
:1030700039494989491C88B200F0D2FAE0B200F01F
:10308000C3FA35494989891C88B200F0C9FA30125F
:1030900000F0BAFA30494989C91C88B200F0C0FA78
:1030A000F0B200F0B1FA2C49888900F0B9FA281280
:1030B00000F0AAFA28498989491C88B200F0B0FAC0
:1030C000E8B200F0A1FA24498989891C88B200F08D
:1030D000A7FA381200F098FA1F498989C91C88B2EA
:1030E00000F09EFAF8B200F08FFA32E01A488079C8
:1030F00001280ED1AA46BB4617480088801B401EF7
:1031000080B2019014480088001B401E80B20090DD
:1031100003E0A246B3460195009750200590512048
:10312000049052200390532002905146059800F0DD
:103130008DFA5946049800F089FA0199039800F035
:1031400085FA0099029800F081FA29462046FFF797
:1031500027FE06B0BDE8F08F505100202DE9F84F52
:1031600080460F4616461C46BB462046E31704EB36
:103170005373DB1021464FEAE47C04EB5C7C4FEA9E
:10318000EC0CA4EBCC0CBCF1000F02D04FF0010C06
:1031900001E04FF0000C6344224604EBD27C4FEA7E
:1031A0006C0C03FB0CF3DBB20093A6F12000C6B25B
:1031B000002560E00C2C07D106EB4600304901EBFE
:1031C000800010F805901DE0102C05D12D4800EB73
:1031D000061010F8059015E0182C07D106EBC60074
:1031E000294901EB800010F805900BE0302C07D145
:1031F00006EBC600254901EB001010F8059001E030
:10320000BDE8F88F4FF0000A2FE009F0800030B1E0
:103210001F48028839464046FFF72EFA07E00A9811
:1032200028B91C48028839464046FFF725FA4FEA7C
:1032300049604FEA1069781C87B217484088B84245
:1032400000DCDDE7A7EB0B00A0420AD15F4608F1E6
:1032500001001FFA80F810480088404500DCCFE7E5
:1032600006E00AF1010000F0FF0ABAF1080FCCDB1A
:1032700000BF681CC5B2009885429BDB00BFBFE75A
:10328000609F0008D4A30008C4A9000820B7000864
:10329000520B0020540B0020505100202DE9FF5FFD
:1032A000B0B014461D46DDF800914FF0000AD34639
:1032B00000202F903E9878B92046294605F074FFEB
:1032C000CDF800900B9002463F9BDDE9300100F005
:1032D0001DF934B0BDE8F09F002213462046294670
:1032E00006F050F837D24FF0010A85F00040CDE9E2
:1032F0000A4020460B9906F077FD074688460A20CB
:103300003E99FFF7D5FA059005F0E3FFCDE90801F6
:103310003846414605F0F0FF00227B4BCDE9000125
:1033200006F06CF8CDE9040185F00040CDE90240DB
:103330000B462046DDE9031206F086FACDE90601C8
:10334000DDE9082306F05AF8CDE90A0106F04CFD44
:10335000CDE90C012AE02046294606F045FD074646
:1033600088460A203E99FFF7A3FA059005F0B1FFC1
:10337000CDE908013846414605F0BEFF0022624B08
:10338000CDE9020106F03AF822462B46CDE90401C8
:1033900006F068F9CDE90601DDE9082306F02EF80C
:1033A000CDE90A0106F020FDCDE90C0100BF0A229B
:1033B000002338464146FCF776FF5846411C01F091
:1033C000FF0B1FA90A540A22002338464146FCF786
:1033D0006AFF07468846002187EA010088EA010162
:1033E0000843E4D12F9015E00A220023DDE90C0107
:1033F000FCF759FFD1B20FAA2F9811540A220023CB
:10340000DDE90C01FCF74FFFCDE90C012F98401CC2
:10341000C0B22F903E992F988842E5DBBAF1000F99
:1034200007D000204B462D220090DDE93001FFF748
:1034300095FE564662E00BEB0A00B04218DD002014
:10344000ABF10101A6EB0A03C91A1FAB0090595C4E
:103450003031CAB209EBD9714B10CDF82C903099AC
:1034600003FB061188B24B463199FFF777FE43E024
:103470000BEB0A00B04210D1002009EBD9714A10C1
:10348000CDF82C900090309902FB061188B24B4683
:103490002E223199FFF762FE2EE02F985844401CEF
:1034A0005044B04218DD002000902F995944A6EBFB
:1034B0000A03C91A0FAB595C3031CAB209EBD97192
:1034C0004B10CDF82C90309903FB061188B24B4677
:1034D0003199FFF743FE0FE0002009EBD9714A1044
:1034E000CDF82C900090309902FB061188B24B4623
:1034F00020223199FFF732FE701CC6B23F988642F7
:1035000099DB00BFE5E600000000F03F2DE9FF4F2A
:1035100081B0074691461E460E9D4FF0000A0024DA
:1035200039E0301B401EC1B20A20FFF7C1F9B9FBD8
:10353000F0F00A21B0FBF1F201FB1208BAF1000F22
:1035400016D1701EA04213DDB8F1000F0ED100207D
:10355000AB4605EBDB71491001FB0471009088B2AA
:103560002B4620220299FFF7F9FD12E04FF0010AE5
:103570000020AB4605EBDB71491001FB04710090A4
:1035800088B208F13001CAB22B460299FFF7E6FD76
:1035900000BF601CC4B2B442C3DB05B0BDE8F08F0D
:1035A0002DE9F84F04460D4690469946DDE90B7A21
:1035B0000A9E04F0FF0B08EB04001FFA80F809EBE9
:1035C00005001FFA80F916E0444502DB5C46A819A5
:1035D00085B24D4500DB14E0CDF800A03A783346C3
:1035E00029462046FFF7BAFD304606EBD07104EBC2
:1035F00061018CB27F1C38787E2802DC3878202864
:10360000E2DA00BFBDE8F88F01B5BDF80000009018
:10361000BDF800000149088008BD00008000006C72
:1036200001B5BDF800000090BDF800000149088018
:1036300008BD00007E00006C024800890249088035
:1036400070470000505100207E00006C034A10803B
:103650004FF0D842A2F88010704700007E00006C46
:103660002DE9FE4104460D46A38C608C40F21F32CA
:103670000021FEF7E3FFA68C06EBD67C4FEA6C0335
:10368000678C07EBD77C4FEA6C0C0CF5C87C1FFAF3
:103690008CF2B04606EBD87C4FEA6C0107F10A0CBD
:1036A0001FFA8CF0FEF76EFF00201821CDE90015FF
:1036B0000290A68C06EBD67252100C3A91B2678C2F
:1036C00007EBD772521002F5CD7290B218233C224C
:1036D000FFF766FFBDE8FE8100BFFEE77047000010
:1036E00070B5002100230F22C4781CB3174C246846
:1036F00004F4E064C4F5E064C4F30721C1F10404F8
:10370000E3B20A4144789C40E1B2847814402143FA
:103710000C07210E0E4C05786155047804F01F0546
:103720000124AC4005786D11AD0005F1E025C5F828
:10373000004109E0047804F01F050124AC40054D68
:103740000678761145F8264070BD00000CED00E0CB
:1037500000E400E080E100E002490143024A116018
:10376000704700000000FA050CED00E07047000013
:103770002DE9F04F89B00446894615461E464FF0A4
:1037800060412448CDE9061004F6A84000EBC900CA
:10379000D0E900733A462846314606F055F8CDE99F
:1037A000040141F62810204400EBC900D0E9007361
:1037B0003A46DDE9120106F047F8CDE9020102A818
:1037C0000FC805F05DFB074604F006FD43F2282212
:1037D000224402EBC90203C243F22820204400EB3A
:1037E000C900D0E900733A46DDE9060105F006FE9E
:1037F0000022094BCDE9000105F034FF824605F0B7
:10380000D3FC44F2C811214421F8190009B0BDE8E5
:10381000F08F00008CDF574000006E402DE9F04F24
:103820008DB0044689469246B4F8580005F051FD23
:10383000CDE90401D4E90A733A46D4E90CB15846FB
:1038400006F002F8CDE90201DDE9042305F018FBDA
:10385000CDE90A01B4F85A0005F03BFDCDE90401B9
:10386000D4E90E733A46D4E910B1584605F0ECFF9E
:10387000CDE90201DDE9042305F002FBCDE90801F1
:10388000A088B4F8581090FBF1F080B20790E0885F
:10389000B4F85A1090FBF1F080B20690C4F808908A
:1038A000C4F80CA0D4E90A733A46D4E90CB15846DE
:1038B00005F0CAFFCDE90401A08805F00AFDCDE9B5
:1038C0000201DDE9042305F0DBFAC4E91801D4E9BB
:1038D0000E733A46D4E910B1584605F0B5FFCDE96C
:1038E0000401E08805F0F5FCCDE90201DDE90423DF
:1038F00005F0C6FAC4E91A01E38C628C1946208CE3
:10390000FEF740FEA38C628C1946208CFEF73AFE2F
:10391000002624E0304605F0DCFC0746DDE90A23FA
:1039200005F06CFDCDE90201D4E90A733A4605F0D1
:10393000EBF9CDE90401182105220120CDE901218F
:103940000090238C079A06FB023290B2E28C921C04
:1039500091B2DDE90423FFF7A1FC701C86B2B4F834
:103960005800B042D6DAE38C228CA18C1046FEF7C8
:1039700009FEE38C628CA18C1046FEF703FE002545
:1039800024E0284605F0A5FC0746DDE9082305F0FC
:1039900035FDCDE90201D4E90E733A4605F0B4F9DC
:1039A000CDE90401182008210222CDE9002102906E
:1039B000E38C069A05FB123291B2228C603A90B2E7
:1039C000DDE90423FFF76AFC681C85B2B4F85A00ED
:1039D000A842D6DA00211822A068CDE90020029181
:1039E000228CA38802EB630290B2E28C183291B26F
:1039F0001823F022FFF7D4FD00211822E068CDE95A
:103A000000200291A28C183A91B2228C90B2182315
:103A1000F022FFF7C5FD0DB0BDE8F08F2DE9F04FA6
:103A20008FB004460F4690469946B4F8580005F00A
:103A300050FCCDE90401D4E90AB3D4E90C015A469B
:103A4000CDE9000105F000FFCDE90201DDE9042325
:103A500005F016FACDE90C01B4F85A0005F039FC6E
:103A6000CDE90401D4E90EB3D4E910015A46CDE9F9
:103A7000000105F0E9FECDE90201DDE9042305F0CE
:103A8000FFF9CDE90A01B4F85A0005F022FCCDE9AE
:103A90000401D4E912B3D4E914015A46CDE9000176
:103AA00005F0D2FECDE90201DDE9042305F0E8F9D5
:103AB000CDE90801A088B4F8581090FBF1F080B26D
:103AC0000790E088B4F85A1090FBF1F01FFA80FAE2
:103AD000A760C4F80C80C4F81090D4E90AB3D4E904
:103AE0000C015A46CDE9000105F0AEFECDE9040116
:103AF000A08805F0EEFBCDE90201DDE9042305F025
:103B0000BFF9C4E91801D4E90EB3D4E910015A464B
:103B1000CDE9000105F098FECDE90401E08805F04B
:103B2000D8FBCDE90201DDE9042305F0A9F9C4E9D8
:103B30001A01D4E91201CDE90001D4E914B35A46BF
:103B400005F090FDCDE90401E08805F0C2FBCDE968
:103B50000201DDE9042305F093F9C4E91C01E38CBB
:103B6000628C1946208CFEF70DFDA38C628C1946E1
:103B7000208CFEF707FD002625E0304605F0A9FB66
:103B8000CDE90001DDE90C2305F038FCCDE90201A7
:103B9000D4E90AB35A4605F0B7F8CDE90401182074
:103BA00005210122CDE900210290238C079A06FB12
:103BB000023290B2E28C921C91B2DDE90423FFF74D
:103BC0006DFB701C86B2B4F85800B042D5DAE38CB5
:103BD000228CA18C1046FEF7D5FCE38C628CA18C64
:103BE0001046FEF7CFFC002524E0284605F071FBC7
:103BF000CDE90001DDE90A2305F000FCCDE9020171
:103C0000D4E90EB35A4605F07FF8CDE90401182037
:103C100008210222CDE900210290E28C05FB1A2244
:103C200091B2228C603A90B2DDE90423FFF736FBB3
:103C3000681C85B2B4F85A00A842D6DA002524E000
:103C4000284605F046FBCDE90001DDE9082305F033
:103C5000D5FBCDE90201D4E912B35A4605F054F878
:103C6000CDE90401182008210222CDE900210290AB
:103C7000E28C05FB1A2291B2628C921C90B2DDE9B3
:103C80000423FFF70BFB681C85B2B4F85A00A84266
:103C9000D6DA00211822A068CDE900200291228CFA
:103CA000A38802EB630290B2E28C183291B218231F
:103CB000F022FFF775FC00211822E068CDE9002012
:103CC0000291A28C183A91B2228C90B21823F02261
:103CD000FFF766FC002118222069CDE9002002913F
:103CE000A28C183A91B2608C1823F022FFF758FC8E
:103CF0000FB0BDE8F08F704729B1064A1268024341
:103D0000044B1A6004E0034A12688243014B1A60B4
:103D1000704700003038024029B1064A1268024359
:103D2000044B1A6004E0034A12688243014B1A6094
:103D3000704700003838024029B1064A1268024331
:103D4000044B1A6004E0034A12688243014B1A6074
:103D50007047000040380240F0B5002100220024E6
:103D6000022500260223324F3F6807F00C0121B1E3
:103D7000042905D0082937D105E02E4F076036E029
:103D80002D4F076033E02A4F3F1F3F68C7F380562F
:103D9000274F3F1F3F6807F03F036EB1264FB7FB29
:103DA000F3F7DFF88CC0ACF1040CDCF800C0CCF306
:103DB000881C07FB0CF40CE01E4FB7FBF3F7DFF891
:103DC00070C0ACF1040CDCF800C0CCF3881C07FB1D
:103DD0000CF4174F3F1F3F68C7F301477F1C7D005E
:103DE000B4FBF5F7076002E0124F076000BF00BFA9
:103DF0000F4F3F6807F0F0010909104F7A5C076820
:103E0000D74047600A4F3F6807F4E051890A0B4FDB
:103E10007A5C4768D7408760054F3F6807F4604188
:103E2000490B064F7A5C4768D740C760F0BD000079
:103E3000083802400024F40040787D01640B002023
:103E400010B500F003F8FCF7CBFD10BD10B588B03D
:103E5000002400BF0FE00020694601EBC401087197
:103E60000320694601EBC40148710120694601EB5A
:103E7000C401C871641C042CEDDB8020009040203C
:103E80000290202004901020069069460848FDF713
:103E900032F902A90648FDF72EF904A90448FDF7F6
:103EA0002AF906A90248FDF726F908B010BD00005E
:103EB0000004024010B5FCF75DFD00F001F810BDF4
:103EC00010B588B0002400BF14E00120694601EB62
:103ED000C40108710320694601EBC4014871002048
:103EE000694601EBC40188710220694601EBC401F7
:103EF000C871641C042CE8DB8020009040200290F4
:103F0000202004901020069069461048FDF7F3F831
:103F100002A90E48FDF7EFF804A90C48FDF7EBF8ED
:103F200006A90A48FDF7E7F880210848FDF757F988
:103F300040210648FDF753F920210448FDF74FF9C9
:103F400010210248FDF74BF908B010BD00040240F3
:103F500070B5002580216248FDF738F978B140211D
:103F60005F48FDF733F950B120215D48FDF72EF988
:103F700028B110215A48FDF729F900287DD14FF4C6
:103F80007A7004F073FA80215548FDF71FF978B173
:103F900040215348FDF71AF950B120215048FDF750
:103FA00015F928B110214E48FDF710F90028E5D188
:103FB00003F06EFE0546FFF77DFFFFF77BFF6420F1
:103FC00004F054FA03F036FE0543D72D34D012DC4A
:103FD000B72D29D008DC772D1ED07B2D1ED07D2D4E
:103FE0001ED07E2D38D11DE0BB2D1FD0BD2D1FD082
:103FF000BE2D31D11EE0E72D26D006DCDB2D1DD0F5
:10400000DD2D1DD0DE2D27D11CE0EB2D1ED0ED2D9A
:104010001ED0EE2D20D11DE001241EE002241CE064
:1040200003241AE00A2418E0042416E0052414E00E
:10403000062412E00B2410E007240EE008240CE014
:1040400009240AE00C2408E00D2406E0002404E022
:104050000E2402E00F2400E000BF00BF00BF0821D3
:104060001F48FDF7B3F80028F9D04FF400411D4870
:10407000FDF7ACF80028F2D000E02CE04FF48041CE
:104080001848FDF7A3F80028E9D04FF4005115486F
:10409000FDF79CF80028E2D0052004F0E7F900BF06
:1040A00008210F48FDF792F80028F9D04FF400419D
:1040B0000C48FDF78BF80028F2D04FF480410948F6
:1040C000FDF784F80028EBD04FF400510548FDF7C8
:1040D0007DF80028E4D0FFF7B3FE204670BD000055
:1040E0000004024000180240704770470CB50020E1
:1040F000019000903448006840F4803032490860F4
:1041000000BF3148006800F4003000900198401C66
:104110000190009818B90198B0F5A04FF1D12A4844
:10412000006800F4003010B10120009001E0002090
:1041300000900098012846D123484030006840F0A4
:1041400080502149403108602048006840F44040D8
:104150001E4908601C48083000681B490831086087
:104160000846006840F4004008600846006840F4D3
:10417000A05008601648091F0860081F006840F03A
:104180008070091F086000BF0F48006800F00070D1
:104190000028F9D040F205700E4908600A4808303E
:1041A000006820F0030008490831086008460068EC
:1041B00040F00200086000BF03480830006800F0CB
:1041C0000C000828F8D10CBD0038024000700040F7
:1041D00019544007003C024010B50146CB880868DE
:1041E00010F813208888401E002801D50A2010BD31
:1041F0000A20CC880B6803F814008888401E888049
:10420000C888401EC8801046F1E702469088401CCE
:104210000A2801DD00207047D088401CD08090889B
:10422000401C9080D388106800F813100120F2E73A
:10423000042808D14FF0E021096941F004014FF052
:10424000E022116107E04FF0E021096921F004014B
:104250004FF0E022116170477047000010B512481E
:10426000006840F001001049086000200E49083144
:1042700008600D4800680D4908400B4908600C486B
:10428000091D0860081F006820F48020091F0860CD
:10429000002005490C310860FFF728FF4FF000604F
:1042A0000449086010BD000000380240FFFFF6FE20
:1042B0001030002408ED00E000B5A1B000202090EF
:1042C00001217A20FFF718FD01210846FFF724FDA0
:1042D0004FF400401E9001208DF87C0000208DF8E6
:1042E0007E0002208DF87D0001208DF87F001EA940
:1042F000FE48FCF700FF4CF233701E9002208DF850
:104300007C0000208DF87E0003208DF87D000120C8
:104310008DF87F001EA9F648FCF7EDFE4FF6807081
:104320001E9002208DF87C0000208DF87E00032076
:104330008DF87D0001208DF87F001EA9ED48FCF767
:10434000DAFE4FF480501E9002208DF87C00002091
:104350008DF87E0003208DF87D0001208DF87F0010
:104360001EA9E548FCF7C7FE4FF480501E900220BE
:104370008DF87C0000208DF87E0003208DF87D00F4
:1043800001208DF87F001EA9DC48FCF7B4FE0C224A
:104390000021D748FCF7F7FE0C220121D448FCF796
:1043A000F2FE0C220421D248FCF7EDFE0C2205217E
:1043B000CF48FCF7E8FE0C220821CD48FCF7E3FECD
:1043C0000C220921CA48FCF7DEFE0C220A21C8484B
:1043D000FCF7D9FE0C220E21C548FCF7D4FE0C22B6
:1043E0000F21C348FCF7CFFE0C220721C148FCF780
:1043F000CAFE0C220821BF48FCF7C5FE0C22092189
:10440000BC48FCF7C0FE0C220A21BA48FCF7BBFEF0
:104410000C220B21B748FCF7B6FE0C221146B5481A
:10442000FCF7B1FE0C220D21B248FCF7ACFE0C22C9
:104430000E21B048FCF7A7FE0C220F21AD48FCF777
:10444000A2FE0C221146AC48FCF79DFE0C22114640
:10445000AA48FCF798FE0F200890002009903C2005
:104460000A9000200B900C900D900E900920019066
:1044700000200290082003900020049005900690F0
:10448000079006200F90002010901190102012909D
:104490000020139015901490169017904FF48050B0
:1044A0001890002019904FF480401A9000201B9023
:1044B00008A81C9001A81D900FA8FCF7A9FD0121D8
:1044C0000620FCF78BFD04F085FB02218B48FCF7EE
:1044D00088FE0A2003F0AEFF02218848FCF77FFE29
:1044E0000A2003F0A7FF02218448FCF77AFE32205D
:1044F00003F0A0FF01210020FFF7A8F8322003F00D
:1045000099FF0020FEF7A0FA7D4988800846808840
:10451000FF280ADB084680884FF6FF71884204D0E6
:1045200077488088B0F5134F7ED1D320FFF778F815
:10453000FEF7CAF972498880FEF7C6F9704988808B
:10454000FEF7C2F96E498880084680884FF6FF71F1
:1045500001EA00206A498880FEF7B6F9684989882F
:104560000843674988800846808849F2413188427B
:104570005AD0BF20FFF754F8FEF7A6F960498880AB
:10458000FEF7A2F95E498880FEF79EF95C498880B3
:10459000FEF79AF95A498880084680884FF6FF71DD
:1045A00001EA002056498880FEF78EF9544989882F
:1045B0000843534988800846808846F604018842AB
:1045C0007AD0D420FFF72CF8FEF77EF94C4988808A
:1045D000FEF77AF94A498880FEF776F948498880DB
:1045E000084680884FF6FF7101EA00204449888020
:1045F000FEF76AF94249898808434149888008469C
:10460000808845F21031884256D04FF45A40FFF767
:1046100007F8FEF759F93A4988804FF45B40FEF7F6
:10462000FFFFFEF751F900E046E035498880084673
:1046300080884FF6FF7101EA0020314988804FF4ED
:104640005C40FEF7EDFFFEF73FF92D4989880843EE
:104650002B49888008468088B0F5004F02D145F28A
:10466000105088802648808845F21051884223D017
:10467000A120FEF7D5FFFEF727F921498880FEF734
:1046800023F91F498880084680884FF6FF7101EAA8
:1046900000201B498880FEF717F9194989880843CB
:1046A000174988800846808845F26171884203D1A5
:1046B00041F66310124988801148808849F24131DF
:1046C000884211D00E48808845F2103188420BD0C4
:1046D0000B48808845F21051884205D008488088F0
:1046E00041F6631188422CD106480DE000040240D7
:1046F000000C02400010024000140240001802406A
:10470000505100201C0100A0006820F00F004FF065
:104710002041C1F81C010846D0F81C0120F470604B
:10472000C1F81C010846D0F81C0140F00300C1F894
:104730001C010846D0F81C0140F40070C1F81C01AF
:1047400028E0FC48808846F60401884205D0F948F4
:1047500080884CF2055188421CD1F748006820F04F
:104760000F004FF02041C1F81C010846D0F81C0191
:1047700020F47060C1F81C010846D0F81C0140F01C
:104780000A00C1F81C010846D0F81C0140F4406042
:10479000C1F81C01E748808849F2413188427CD148
:1047A000CF20FEF73DFF0020FEF72EFFC120FEF7D1
:1047B0002BFF3020FEF728FFED20FEF731FF6420AD
:1047C000FEF722FF0320FEF71FFF1220FEF71CFF5B
:1047D0008120FEF719FFE820FEF722FF8520FEF773
:1047E00013FF1020FEF710FF7A20FEF70DFFCB20FD
:1047F000FEF716FF3920FEF707FF2C20FEF704FF17
:104800000020FEF701FF3420FEF7FEFE0220FEF737
:10481000FBFEF720FEF704FF2020FEF7F5FEEA205E
:10482000FEF7FEFE0020FEF7EFFE0020FEF7ECFE96
:10483000C020FEF7F5FE1B20FEF7E6FEC120FEF7C6
:10484000EFFE0120FEF7E0FEC520FEF7E9FE302076
:10485000FEF7DAFE3020FEF7D7FEC720FEF7E0FEB7
:10486000B720FEF7D1FE3620FEF7DAFE4820FEF72D
:10487000CBFE3A20FEF7D4FE5520FEF7C5FEB12050
:10488000FEF7CEFE0020FEF7BFFE1A20FEF7BCFEAC
:10489000B620FEF7C5FE0A2000E099E0FEF7B4FE60
:1048A000A220FEF7B1FEF220FEF7BAFE0020FEF7CE
:1048B000ABFE2620FEF7B4FE0120FEF7A5FEE020A9
:1048C000FEF7AEFE0F20FEF79FFE2A20FEF79CFEAD
:1048D0002820FEF799FE0820FEF796FE0E20FEF730
:1048E00093FE0820FEF790FE5420FEF78DFEA920CF
:1048F000FEF78AFE4320FEF787FE0A20FEF784FEBD
:104900000F20FEF781FE0020FEF77EFE0020FEF75E
:104910007BFE0020FEF778FE0020FEF775FEE1200A
:10492000FEF77EFE0020FEF76FFE1520FEF76CFE00
:104930001720FEF769FE0720FEF766FE1120FEF73E
:1049400063FE0620FEF760FE2B20FEF75DFE56207C
:10495000FEF75AFE3C20FEF757FE0520FEF754FEF8
:104960001020FEF751FE0F20FEF74EFE3F20FEF70F
:104970004BFE3F20FEF748FE0F20FEF745FE2B20A2
:10498000FEF74EFE0020FEF73FFE0020FEF73CFE45
:104990000120FEF739FE3F20FEF736FE2A20FEF703
:1049A0003FFE0020FEF730FE0020FEF72DFE002027
:1049B000FEF72AFEEF20FEF727FE1120FEF730FE5D
:1049C000782003F037FD2920FEF72AFE03F022B9F4
:1049D0005848808846F6040188427CD11120FEF7B1
:1049E0001FFE142003F026FDD020FEF719FE07203D
:1049F000FEF70AFE4220FEF707FE1D20FEF704FE2A
:104A0000D120FEF70DFE0020FEF7FEFD1A20FEF776
:104A1000FBFD0920FEF7F8FDD220FEF701FE012084
:104A2000FEF7F2FD2220FEF7EFFDC020FEF7F8FDB5
:104A30001020FEF7E9FD3B20FEF7E6FD0020FEF723
:104A4000E3FD0220FEF7E0FD1120FEF7DDFDC520AD
:104A5000FEF7E6FD0320FEF7D7FDC820FEF7E0FDD8
:104A60000020FEF7D1FD2520FEF7CEFD2120FEF728
:104A7000CBFD0520FEF7C8FD0020FEF7C5FD0A208E
:104A8000FEF7C2FD6520FEF7BFFD2520FEF7BCFD49
:104A90007720FEF7B9FD5020FEF7B6FD0F20FEF798
:104AA000B3FD0020FEF7B0FDF820FEF7B9FD0120B0
:104AB000FEF7AAFDFE20FEF7B3FD0020FEF7A4FDE1
:104AC0000220FEF7A1FD2020FEF7AAFD3620FEF70A
:104AD000A7FD082000E031E0FEF796FD3A20FEF742
:104AE0009FFD5520FEF790FD2B20FEF799FD00203D
:104AF000FEF78AFD0020FEF787FD0120FEF784FD0A
:104B00003F20FEF781FD2A20FEF78AFD0020FEF7F8
:104B10007BFD0020FEF778FD0120FEF775FDDF200C
:104B2000FEF772FD782003F085FC2920FEF778FD62
:104B30004CE70000505100201C0100A0FE48808876
:104B400045F21031884240F07C87ED20FEF768FD89
:104B50000120FEF759FDFE20FEF756FDEE20FEF780
:104B60005FFDDE20FEF750FD2120FEF74DFDF12018
:104B7000FEF756FD0120FEF747FDDF20FEF750FD52
:104B80001020FEF741FDC420FEF74AFD8F20FEF7FE
:104B90003BFDC620FEF744FD0020FEF735FDE22078
:104BA000FEF732FDE220FEF72FFDE220FEF72CFD9E
:104BB000BF20FEF735FDAA20FEF726FDB020FEF748
:104BC0002FFD0D20FEF720FD0020FEF71DFD0D201E
:104BD000FEF71AFD0020FEF717FD1120FEF714FD69
:104BE0000020FEF711FD1920FEF70EFD0020FEF754
:104BF0000BFD2120FEF708FD0020FEF705FD2D200E
:104C0000FEF702FD0020FEF7FFFC3D20FEF7FCFC56
:104C10000020FEF7F9FC5D20FEF7F6FC0020FEF711
:104C2000F3FC5D20FEF7F0FC0020FEF7EDFCB12068
:104C3000FEF7F6FC8020FEF7E7FC0020FEF7E4FC20
:104C40008B20FEF7E1FC0020FEF7DEFC9620FEF74D
:104C5000DBFC0020FEF7D8FCB220FEF7E1FC0020D0
:104C6000FEF7D2FC0020FEF7CFFC0220FEF7CCFCC2
:104C70000020FEF7C9FC0320FEF7C6FC0020FEF76B
:104C8000C3FCB320FEF7CCFC0020FEF7BDFC0020E7
:104C9000FEF7BAFC0020FEF7B7FC0020FEF7B4FCDC
:104CA0000020FEF7B1FC0020FEF7AEFC0020FEF76E
:104CB000ABFC0020FEF7A8FC0020FEF7A5FC0020BE
:104CC000FEF7A2FC0020FEF79FFC0020FEF79CFCF4
:104CD0000020FEF799FC0020FEF796FC0020FEF76E
:104CE00093FC0020FEF790FC0020FEF78DFC0020D6
:104CF000FEF78AFC0020FEF787FC0020FEF784FC0C
:104D00000020FEF781FC0020FEF77EFC0020FEF76D
:104D10007BFC0020FEF778FCB420FEF781FC8B20A2
:104D2000FEF772FC0020FEF76FFC9620FEF76CFC8D
:104D30000020FEF769FCA120FEF766FC0020FEF7CC
:104D400063FCB520FEF76CFC0220FEF75DFC002042
:104D5000FEF75AFC0320FEF757FC0020FEF754FC38
:104D60000420FEF751FC0020FEF74EFCB620FEF7B3
:104D700057FC0020FEF748FC0020FEF745FCB7205A
:104D8000FEF74EFC0020FEF73FFC0020FEF73CFC47
:104D90003F20FEF739FC0020FEF736FC5E20FEF7D0
:104DA00033FC0020FEF730FC6420FEF72DFC0020D1
:104DB000FEF72AFC8C20FEF727FC0020FEF724FCDF
:104DC000AC20FEF721FC0020FEF71EFCDC20FEF7E5
:104DD0001BFC0020FEF718FC7020FEF715FC0020DD
:104DE000FEF712FC9020FEF70FFC0020FEF70CFCF3
:104DF000EB20FEF709FC0020FEF706FCDC20FEF7A6
:104E000003FC0020FEF700FCB820FEF709FC0020A0
:104E1000FEF7FAFB0020FEF7F7FB0020FEF7F4FB9D
:104E20000020FEF7F1FB0020FEF7EEFB0020FEF76E
:104E3000EBFB0020FEF7E8FB0020FEF7E5FBBA20C5
:104E4000FEF7EEFB2420FEF7DFFB0020FEF7DCFB85
:104E50000020FEF7D9FB0020FEF7D6FBC120FEF7AD
:104E6000DFFB2020FEF7D0FB0020FEF7CDFB542017
:104E7000FEF7CAFB0020FEF7C7FBFF20FEF7C4FBCE
:104E80000020FEF7C1FBC220FEF7CAFB0A20FEF796
:104E9000BBFB0020FEF7B8FB0420FEF7B5FB0020AB
:104EA000FEF7B2FBC320FEF7BBFB3C20FEF7ACFBDA
:104EB0000020FEF7A9FB3A20FEF7A6FB0020FEF734
:104EC000A3FB3920FEF7A0FB0020FEF79DFB372057
:104ED000FEF79AFB0020FEF797FB3C20FEF794FBC1
:104EE0000020FEF791FB3620FEF78EFB0020FEF738
:104EF0008BFB3220FEF788FB0020FEF785FB2F207E
:104F0000FEF782FB0020FEF77FFB2C20FEF77CFBE8
:104F10000020FEF779FB2920FEF776FB0020FEF744
:104F200073FB2620FEF770FB0020FEF76DFB2420AC
:104F3000FEF76AFB002001E050510020FEF764FB01
:104F40002420FEF761FB0020FEF75EFB2320FEF726
:104F50005BFB0020FEF758FB3C20FEF755FB0020D2
:104F6000FEF752FB3620FEF74FFB0020FEF74CFB0E
:104F70003220FEF749FB0020FEF746FB2F20FEF70C
:104F800043FB0020FEF740FB2C20FEF73DFB0020FA
:104F9000FEF73AFB2920FEF737FB0020FEF734FB33
:104FA0002620FEF731FB0020FEF72EFB2420FEF723
:104FB0002BFB0020FEF728FB2420FEF725FB00201A
:104FC000FEF722FB2320FEF71FFB0020FEF71CFB51
:104FD000C420FEF725FB6220FEF716FB0020FEF73B
:104FE00013FB0520FEF710FB0020FEF70DFB8420CD
:104FF000FEF70AFB0020FEF707FBF020FEF704FB9C
:105000000020FEF701FB1820FEF7FEFA0020FEF755
:10501000FBFAA420FEF7F8FA0020FEF7F5FA1820B4
:10502000FEF7F2FA0020FEF7EFFA5020FEF7ECFA56
:105030000020FEF7E9FA0C20FEF7E6FA0020FEF762
:10504000E3FA1720FEF7E0FA0020FEF7DDFA9520DC
:10505000FEF7DAFA0020FEF7D7FAF320FEF7D4FACB
:105060000020FEF7D1FAE620FEF7CEFA0020FEF788
:10507000CBFAC520FEF7D4FA3220FEF7C5FA00209D
:10508000FEF7C2FA4420FEF7BFFA0020FEF7BCFA92
:105090006520FEF7B9FA0020FEF7B6FA7620FEF793
:1050A000B3FA0020FEF7B0FA8820FEF7ADFA002030
:1050B000FEF7AAFAC620FEF7B3FA2020FEF7A4FAFC
:1050C0000020FEF7A1FA1720FEF79EFA0020FEF757
:1050D0009BFA0120FEF798FA0020FEF795FAC72008
:1050E000FEF79EFA0020FEF78FFA0020FEF78CFAFA
:1050F0000020FEF789FA0020FEF786FAC820FEF7A6
:105100008FFA0020FEF780FA0020FEF77DFA0020DB
:10511000FEF77AFA0020FEF777FAC920FEF780FA48
:105120000020FEF771FA0020FEF76EFA0020FEF76D
:105130006BFA0020FEF768FA0020FEF765FA0020FF
:10514000FEF762FA0020FEF75FFA0020FEF75CFA35
:105150000020FEF759FA0020FEF756FA0020FEF76D
:1051600053FA0020FEF750FA0020FEF74DFA002017
:10517000FEF74AFA0020FEF747FA0020FEF744FA4D
:10518000E020FEF74DFA1620FEF73EFA0020FEF76B
:105190003BFA1C20FEF738FA0020FEF735FA2120F2
:1051A000FEF732FA0020FEF72FFA3620FEF72CFA2F
:1051B0000020FEF729FA4620FEF726FA0020FEF727
:1051C00023FA5220FEF720FA0020FEF71DFA642091
:1051D000FEF71AFA0020FEF717FA7A20FEF714FA03
:1051E0000020FEF711FA8B20FEF70EFA0020FEF7E2
:1051F0000BFA9920FEF708FA0020FEF705FAA8201E
:10520000FEF702FA0020FEF7FFF9B920FEF7FCF9DD
:105210000020FEF7F9F9C420FEF7F6F90020FEF7AA
:10522000F3F9CA20FEF7F0F90020FEF7EDF9D220DD
:10523000FEF7EAF90020FEF7E7F9D920FEF7E4F9D6
:105240000020FEF7E1F9E020FEF7DEF90020FEF78E
:10525000DBF9F320FEF7D8F90020FEF7D5F9E120BD
:10526000FEF7DEF91620FEF7CFF90020FEF7CCF9A5
:105270001C20FEF7C9F90020FEF7C6F92220FEF730
:10528000C3F90020FEF7C0F93620FEF7BDF9002073
:10529000FEF7BAF94520FEF7B7F90020FEF7B4F99A
:1052A0005220FEF7B1F90020FEF7AEF96420FEF7B8
:1052B000ABF90020FEF7A8F97A20FEF7A5F9002047
:1052C000FEF7A2F98B20FEF79FF90020FEF79CF96C
:1052D0009920FEF799F90020FEF796F9A820FEF72D
:1052E00093F90020FEF790F9B920FEF78DF9002020
:1052F000FEF78AF9C420FEF787F90020FEF784F94B
:10530000CA20FEF781F90020FEF77EF9D220FEF7D1
:105310007BF90020FEF778F9D820FEF775F9002018
:10532000FEF772F9E020FEF76FF90020FEF76CF946
:10533000F320FEF769F90020FEF766F9E220FEF798
:105340006FF90520FEF760F90020FEF75DF90B20EC
:10535000FEF75AF90020FEF757F91B20FEF754F923
:105360000020FEF751F93420FEF74EF90020FEF739
:105370004BF94420FEF748F90020FEF745F94F208D
:10538000FEF742F90020FEF73FF96120FEF73CF9F5
:105390000020FEF739F97920FEF736F90020FEF7F4
:1053A00033F98820FEF730F90020FEF72DF9972019
:1053B000FEF72AF90020FEF727F9A620FEF724F9C8
:1053C0000020FEF721F9B720FEF71EF90020FEF7B6
:1053D0001BF9C220FEF718F90020FEF715F9C720C7
:1053E000FEF712F90020FEF70FF9D120FEF70CF9B5
:1053F0000020FEF709F9D620FEF706F90020FEF797
:1054000003F9DD20FEF700F90020FEF7FDF8F32098
:10541000FEF7FAF80020FEF7F7F8E320FEF700F9B0
:105420000520FEF7F1F80020FEF7EEF80A20FEF75F
:10543000EBF80020FEF7E8F81C20FEF7E5F8002066
:10544000FEF7E2F83320FEF7DFF80020FEF7DCF885
:105450004420FEF7D9F80020FEF7D6F85020FEF7DA
:10546000D3F80020FEF7D0F86220FEF7CDF8002038
:10547000FEF7CAF87820FEF7C7F80020FEF7C4F858
:105480008820FEF7C1F80020FEF7BEF89720FEF74F
:10549000BBF80020FEF7B8F8A620FEF7B5F800200C
:1054A000FEF7B2F8B720FEF7AFF80020FEF7ACF831
:1054B000C220FEF7A9F80020FEF7A6F8C720FEF7E5
:1054C000A3F80020FEF7A0F8D120FEF79DF80020F9
:1054D000FEF79AF8D520FEF797F80020FEF794F82B
:1054E000DD20FEF791F80020FEF78EF8F320FEF79E
:1054F0008BF80020FEF788F8E420FEF791F80120F1
:10550000FEF782F80020FEF77FF80120FEF77CF816
:105510000020FEF779F80220FEF776F80020FEF76B
:1055200073F82A20FEF770F80020FEF76DF83C2093
:10553000FEF76AF80020FEF767F84B20FEF764F8E4
:105540000020FEF761F85D20FEF75EF80020FEF710
:105550005BF87420FEF758F80020FEF755F8842019
:10556000FEF752F80020FEF74FF89320FEF74CF8B4
:105570000020FEF749F8A220FEF746F80020FEF7CB
:1055800043F8B320FEF740F80020FEF73DF8BE20B8
:10559000FEF73AF80020FEF737F8C420FEF734F89B
:1055A0000020FEF731F8CD20FEF72EF80020FEF7A0
:1055B0002BF8D320FEF728F80020FEF725F8DD2091
:1055C000FEF722F80020FEF71FF8F320FEF71CF884
:1055D0000020FEF719F8E520FEF722F80020FEF77C
:1055E00013F80020FEF710F80020FEF70DF8002059
:1055F000FEF70AF80220FEF707F80020FEF704F88D
:105600002920FEF701F80020FDF7FEFF3C20FDF702
:10561000FBFF0020FDF7F8FF4B20FDF7F5FF002012
:10562000FDF7F2FF5D20FDF7EFFF0020FDF7ECFF37
:105630007420FDF7E9FF0020FDF7E6FF8420FDF769
:10564000E3FF0020FDF7E0FF9320FDF7DDFF0020E2
:10565000FDF7DAFFA220FDF7D7FF0020FDF7D4FF0A
:10566000B320FDF7D1FF0020FDF7CEFFBE20FDF7F0
:10567000CBFF0020FDF7C8FFC420FDF7C5FF0020C9
:10568000FDF7C2FFCD20FDF7BFFF0020FDF7BCFFF7
:10569000D320FDF7B9FF0020FDF7B6FFDC20FDF7B2
:1056A000B3FF0020FDF7B0FFF320FDF7ADFF0020B2
:1056B000FDF7AAFFE620FDF7B3FF1120FDF7A4FFD9
:1056C0000020FDF7A1FF3420FDF79EFF0020FDF72D
:1056D0009BFF5620FDF798FF0020FDF795FF7620F1
:1056E000FDF792FF0020FDF78FFF7720FDF78CFF7D
:1056F0000020FDF789FF6620FDF786FF0020FDF7FB
:1057000083FF8820FDF780FF0020FDF77DFF9920B3
:10571000FDF77AFF0020FDF777FFBB20FDF774FF50
:105720000020FDF771FF9920FDF76EFF0020FDF7C7
:105730006BFF6620FDF768FF0020FDF765FF552031
:10574000FDF762FF0020FDF75FFF5520FDF75CFFCE
:105750000020FDF759FF4520FDF756FF0020FDF71B
:1057600053FF4320FDF750FF0020FDF74DFF44207D
:10577000FDF74AFF0020FDF747FFE720FDF750FF48
:105780003220FDF741FF0020FDF73EFF5520FDF7D9
:105790003BFF0020FDF738FF7620FDF735FF0020A6
:1057A000FDF732FF6620FDF72FFF0020FDF72CFFED
:1057B0006720FDF729FF0020FDF726FF6720FDF792
:1057C00023FF0020FDF720FF8720FDF71DFF0020AD
:1057D000FDF71AFF9920FDF717FF0020FDF714FFD2
:1057E000BB20FDF711FF0020FDF70EFF9920FDF70C
:1057F0000BFF0020FDF708FF7720FDF705FF0020D5
:10580000FDF702FF4420FDF7FFFE0020FDF7FCFE40
:105810005620FDF7F9FE0020FDF7F6FE2320FDF7E8
:10582000F3FE0020FDF7F0FE3320FDF7EDFE002033
:10583000FDF7EAFE4520FDF7E7FE0020FDF7E4FE58
:10584000E820FDF7EDFE0020FDF7DEFE0020FDF76D
:10585000DBFE9920FDF7D8FE0020FDF7D5FE87205E
:10586000FDF7D2FE0020FDF7CFFE8820FDF7CCFE2D
:105870000020FDF7C9FE7720FDF7C6FE0020FDF7EA
:10588000C3FE6620FDF7C0FE0020FDF7BDFE8820A8
:10589000FDF7BAFE0020FDF7B7FEAA20FDF7B4FE23
:1058A0000020FDF7B1FEBB20FDF7AEFE0020FDF7A6
:1058B000ABFE9920FDF7A8FE0020FDF7A5FE6620AF
:1058C000FDF7A2FE0020FDF79FFE5520FDF79CFE90
:1058D0000020FDF799FE5520FDF796FE0020FDF70C
:1058E00093FE4420FDF790FE0020FDF78DFE44203E
:1058F000FDF78AFE0020FDF787FE5520FDF784FEA8
:105900000020FDF781FEE920FDF78AFEAA20FDF7C1
:105910007BFE0020FDF778FE0020FDF775FE0020DD
:10592000FDF772FE0020FDF77BFEAA20FDF76CFE5E
:10593000CF20FDF775FE0020FDF766FE0020FDF785
:1059400063FE0020FDF760FE0020FDF75DFE0020F5
:10595000FDF75AFE0020FDF757FE0020FDF754FE2C
:105960000020FDF751FE0020FDF74EFE0020FDF760
:105970004BFE0020FDF748FE0020FDF745FE00200D
:10598000FDF742FE0020FDF73FFE0020FDF73CFE44
:105990000020FDF739FE0020FDF736FEF020FDF770
:1059A0003FFE0020FDF730FE5020FDF72DFE0020C9
:1059B000FDF72AFE0020FDF727FE0020FDF724FE5C
:1059C000F320FDF72DFE0020FDF71EFEF920FDF768
:1059D00027FE0620FDF718FE1020FDF715FE2920F2
:1059E000FDF712FE0020FDF70FFE3A20FDF718FE2E
:1059F0005520FDF709FE1120FDF712FE642002F08C
:105A000019FD2920FDF70CFE3520FDF709FE0020C9
:105A1000FDF7FAFD5120FDF703FEFF20FDF7F4FD31
:105A20005320FDF7FDFD2C20FDF7EEFD5520FDF781
:105A3000F7FD8220FDF7E8FD2C20FDF7F1FD02F0D7
:105A4000E9B8FE48808845F2105188427ED1552140
:105A50004FF47040FDF7FAFDAA214FF20100FDF767
:105A6000F5FD52214FF20200FDF7F0FD08214FF243
:105A70000300FDF7EBFD01214FF20400FDF7E6FD09
:105A80000D214FF43040FDF7E1FD0D214BF20100F7
:105A9000FDF7DCFD0D214BF20200FDF7D7FD3421AF
:105AA0004FF43640FDF7D2FD34214BF20160FDF793
:105AB000CDFD34214BF20260FDF7C8FD0D214FF4FE
:105AC0003140FDF7C3FD0D214BF20110FDF7BEFD86
:105AD0000D214BF20210FDF7B9FD34214FF4374090
